:020000040800F2
:1000000000100020A10E0008190500081D050008B9
:1000100000000000000000000000000000000000E0
:1000200000000000000000000000000021050008A2
:100030000000000000000000250500082905000858
:10004000F10E000800000000F10E0008F10E00089B
:10005000F10E0008F10E0008F10E0008F10E000884
:1000600000000000F10E0008F10E0008F10E00087B
:10007000F10E0008F10E0008F10E0008000000006B
:10008000F10E00080000000000000000F10E000862
:1000900000000000F10E0008F10E0008F10E00084B
:1000A00000000000F10E000800000000F10E000842
:1000B0000000000000000000000000000000000040
:1000C000054B0648033310B51B1A062B03D9044B06
:1000D000002B00D0984710BD040000200400002031
:1000E000000000000648074910B5091A8910CB0F17
:1000F0005918491003D0044B002B00D0984710BD6D
:1001000004000020040000200000000010B5074C8F
:100110002378002B09D1FFF7D3FF054B002B02D02A
:10012000044800E000BF0123237010BD040000203C
:1001300000000000F40E0008094B10B5002B03D09E
:100140000849094800E000BF08480368002B02D1B5
:10015000FFF7C8FF10BD064B002BF9D09847F7E713
:100160000000000008000020F40E00080400002039
:100170000000000070B50D4E0D4D0024AD1BAD10FC
:1001800005D0A300F35801349847A542F9D100F0F7
:10019000B1FE084E084D0024AD1BAD1005D0A300E4
:1001A000F35801349847A542F9D170BD3C0F0008BF
:1001B0003C0F00083C0F0008400F000870B50F2AE4
:1001C00032D90C0004430B00A40731D11500040000
:1001D000103D2D0901352D0149191E6826605E6804
:1001E00066609E68A660DE681033E660103499424F
:1001F000F3D10F2345191340032B1BD91C1F0023D8
:10020000A4080134A400CE58EE5004339C42FAD125
:1002100003232D1909191A4005D00023CC5CEC5496
:1002200001339A42FAD170BD0500002AF5D1FAE7F0
:100230000500F2E71A00F8E770B583073FD0541EB7
:10024000002A3BD0CEB20300032503E0621E002C3F
:1002500034D0140001335A1E16702B42F6D1032CF1
:1002600024D9FF250D402A0215432A0415430F2CDB
:1002700011D92600103E3609013636011A009B19A5
:10028000156055609560D56010329342F8D10F2209
:100290001440032C0AD9261FB6080136B6001A00EE
:1002A0009B1920C29342FCD103221440002C05D09C
:1002B000C9B21C19197001339C42FBD170BD1400E6
:1002C0000300CCE7002243088B4274D303098B421E
:1002D0005FD3030A8B4244D3030B8B4228D3030C16
:1002E0008B420DD3FF22090212BA030C8B4202D3B8
:1002F0001212090265D0030B8B4219D300E0090AE0
:10030000C30B8B4201D3CB03C01A5241830B8B42E8
:1003100001D38B03C01A5241430B8B4201D34B03D1
:10032000C01A5241030B8B4201D30B03C01A524136
:10033000C30A8B4201D3CB02C01A5241830A8B42BB
:1003400001D38B02C01A5241430A8B4201D34B02A4
:10035000C01A5241030A8B4201D30B02C01A524108
:10036000CDD2C3098B4201D3CB01C01A52418309BC
:100370008B4201D38B01C01A524143098B4201D3F6
:100380004B01C01A524103098B4201D30B01C01A21
:100390005241C3088B4201D3CB00C01A524183089B
:1003A0008B4201D38B00C01A524143088B4201D3C8
:1003B0004B00C01A5241411A00D201465241104628
:1003C0007047FFE701B5002000F006F802BDC04607
:1003D0000029F7D076E770477047C04610B590B057
:1003E0003022002104A8FFF727FF1024102200214B
:1003F0006846FFF721FF12230493113B07930993EB
:1004000008940A9404A800F093F8072300930023AB
:100410000193A022029203930021684600F0FCFAA7
:1004200010B010BDF0B55F4680B488B01422002132
:1004300003A8FFF701FF354B59698022D20311430E
:10044000596159690A400092009A596980229202C2
:100450001143596159690A400192019A59698022F0
:10046000D202114359615B691A400292029B002239
:100470000121274800F07CFCDA23DB009B460022A8
:1004800019009020C00500F073FC002202212148D1
:1004900000F06EFC0127039704970024059406944E
:1004A00003A91B4800F0A0FB022603960325049530
:1004B000059403A9164800F097FB0C2303930494BA
:1004C000059403A99020C00500F08EFB5B460393C2
:1004D00004970594069403A99020C00500F084FBBE
:1004E000202303930495059403A99020C00500F0F0
:1004F0007BFB039604970594069403A9054800F036
:1005000073FB08B004BC9346F0BDC0460010024027
:1005100000140048000400487047C046FEE7C0468B
:100520007047C0467047C04610B500F03DFB10BD97
:1005300070B582B004000368DB0763D5C44B5B6809
:100540000C221340042B08D0C14B5B681340082BCE
:100550000BD1BF4B5B68DB0307D5BD4B1B689B030F
:1005600050D56368002B4DD1F7E16368012B06D1AC
:10057000B74A1368802149020B43136022E0002B25
:1005800009D1B34B1968B34A0A401A601968B24AD4
:100590000A401A6016E0052B0BD1AD4B1A6880217A
:1005A000C9020A431A601A68802149020A431A6084
:1005B00008E0A74B1968A74A0A401A601968A64ABA
:1005C0000A401A606368002B0ED000F0F5FA0500AF
:1005D00005E000F0F1FA401B642800D9BFE19C4B14
:1005E0001B689B03F5D50DE000F0E6FA050005E079
:1005F00000F0E2FA401B642800D9B2E1944B1B687A
:100600009B03F5D423689B0750D5914B5B680C2264
:100610001A4208D08E4B5B681340082B14D18C4BC8
:100620005B68DB0310D48A4B1B689B0703D5E36828
:10063000012B00D097E186490B68F8229343226989
:10064000D20013430B6031E0E368002B1BD0804ADB
:10065000116801230B43136000F0AEFA050005E0BA
:1006600000F0AAFA401B022800D97EE1784B1B68F3
:100670009B07F5D576490B68F82293432269D2008F
:1006800013430B6012E0724A136801218B4313601D
:1006900000F092FA050005E000F08EFA401B0228F7
:1006A00000D964E16A4B1B689B07F5D423681B07DC
:1006B00029D5E369002B13D0654A516A01230B4306
:1006C000536200F079FA050005E000F075FA401B6E
:1006D000022800D94DE15E4B5B6A9B07F5D512E01D
:1006E0005B4A536A01218B43536200F065FA0500AF
:1006F00005E000F061FA401B022800D93BE1544BB1
:100700005B6A9B07F5D423685B077AD5504BDB699E
:10071000DB000BD44E4AD16980235B051943D161BC
:10072000D26913400193019B012500E000254B4B4A
:100730001B68DB0513D4494A1368802149000B4329
:10074000136000F039FA060005E000F035FA801B6E
:10075000642800D911E1414B1B68DB05F5D5A3687E
:10076000012B04D13A4A116A0B43136220E0002B9B
:1007700009D1374B1A6A01218A431A621A6A033176
:100780008A431A6214E0052B09D1314B196A0422FD
:100790000A431A62196A01220A431A6208E02C4BC2
:1007A0001A6A01218A431A621A6A03318A431A6259
:1007B000A368002B0FD000F0FFF9060006E000F060
:1007C000FBF9801B264B984200D9D8E0204B1B6ACE
:1007D0009B07F4D50EE000F0EFF9060006E000F00C
:1007E000EBF9801B1E4B984200D9CAE0184B1B6ADC
:1007F0009B07F4D4012D04D1154AD169194B0B4044
:10080000D3612368DB0654D56369012B2CD1104BCF
:10081000596B04220A435A63596B01220A435A63F3
:1008200000F0CAF9050005E000F0C6F9401B0228F7
:1008300000D9A8E0064B5B6B9B07F5D504494B6BD1
:10084000F82293431A00A369DB0013434B6330E0A3
:1008500000100240FFFFFEFFFFFFFBFF00700040A3
:1008600088130000FFFFFFEF05330CD14D494B6BA0
:10087000042293434B634B6BF4329343A269D2003F
:1008800013434B6315E0474B596B04220A435A63E9
:100890005A6B01218A435A6300F08EF9050004E087
:1008A00000F08AF9401B02286FD83E4B5B6B9B0718
:1008B000F6D4236A002B6AD03A4A52680C210A40C7
:1008C000082A66D0022B34D1364A1168364B0B40C9
:1008D000136000F071F9050004E000F06DF9401BB1
:1008E000022858D82F4B1B689B01F6D42D4BDA6A8F
:1008F0000F218A43E16A0A43DA6258682B4A1040A2
:10090000A26A616A0A4302435A601A688021490454
:100910000A431A6000F050F9040004E000F04CF9BA
:10092000001B022839D81F4B1B689B01F6D50020FD
:1009300036E01C4A11681C4B0B40136000F03CF978
:10094000040004E000F038F9001B022827D8154BFA
:100950001B689B01F6D4002022E0012020E0032048
:100960001EE003201CE001201AE0032018E0032011
:1009700016E0032014E0032012E0032010E003201F
:100980000EE003200CE003200AE0032008E0002032
:1009900006E0012004E0032002E0032000E0032041
:1009A00002B070BD00100240FFFFFFFEFFFFC2FF5C
:1009B00010B588B0144C1022210004A8FFF7FEFBEC
:1009C0002100103110226846FFF7F8FB0F4B5A68E0
:1009D0000C231340082B13D1910C0F20014004ABC2
:1009E0005C5C0A4BDB6A03406946C95CD30304D5EF
:1009F0000748FFF767FC604303E00648604300E0F8
:100A0000034808B010BDC0460C0F0008001002409B
:100A100000127A0000093D0070B505000C00504B33
:100A20001B68012213408B4209D24D4A13680121F1
:100A30008B432343136013680B409C427FD12B6888
:100A40009B0706D5474A5368F0218B43A9680B439F
:100A500053602B68DB0747D56A68012A04D1414BF4
:100A60001B689B030BD46CE0022A04D13D4B1B682E
:100A70009B0104D467E03B4B1B689B0765D5394954
:100A80004B680320834313434B6000F095F8060046
:100A90006B68012B0DD105E000F08EF8801B324B06
:100AA000984254D82F4B5B680C221340042BF3D18F
:100AB0001AE0022B13D105E000F07EF8801B2A4BD0
:100AC000984246D8274B5B680C221340082BF3D181
:100AD0000AE000F071F8801B234B98423BD8214B71
:100AE0005B680C221A42F4D11D4B1B680122134093
:100AF0009C4209D21A4A136801218B432343136095
:100B000013680B409C4228D12B685B0706D515491A
:100B10004A68164B1340EA6813434B60FFF748FFDF
:100B2000104B5B681B090F221340114AD35CD8405D
:100B3000104B1860002000F025F800200EE0012086
:100B40000CE001200AE0012008E0012006E003207B
:100B500004E0032002E0032000E0012070BDC04655
:100B6000002002400010024088130000FFF8FFFF41
:100B70002C0F000800000020014B18687047C04689
:100B80000000002010B50400FFF7F6FFFA218900ED
:100B9000FFF798FB00F028F90022210001204042D5
:100BA00000F0F0F8002010BD024A13680133136012
:100BB0007047C04620000020014B18687047C046AF
:100BC0002000002030B583B00190FFF7F5FF05004D
:100BD000019C631C00D00134FFF7EEFF401BA042D4
:100BE000FAD303B030BDC046F0B5474680B482B0FA
:100BF0000023A8E001249C40A046224000D1A1E0AF
:100C00004D68022D01D0122D0FD1DF080837BF002B
:100C10003E5807251D40AD000F24AC40A643B44606
:100C20000E69AE40654635433D5004685F000325BC
:100C30002E00BE40F6433440A4464C682540BD40DB
:100C40006446254305604D686C1E012C03D9112DA7
:100C500001D0122D13D185683540AC46CD68BD401A
:100C600064462543856045684446A543AC464C68C8
:100C7000250901242C409C4065462C434460C468EF
:100C800026408C68BC402643C6604C68E40059D5B9
:100C9000314DAE6901273E43AE61AC693C400194E1
:100CA000019C9C08A51CAD002C4EAF5903251D408E
:100CB000AD000F26AE40B7439026F605B0420AD0ED
:100CC000274EB04209D0274EB04208D0264EB0423F
:100CD00007D1032606E0002604E0012602E00226F2
:100CE00000E00526AE4035003D430234A4001B4E13
:100CF000A5511E4C2568D44326002E404F68FF03A3
:100D000001D515432E00194D2E606D682E0026402A
:100D10004F68BF0301D515432E00144D6E60AD68BA
:100D20002E0026404F68FF0201D515432E000F4DBF
:100D3000AE60ED682C404E68B60201D52A4314001F
:100D40000A4AD46001330A681400DC4000D051E73D
:100D500002B004BC9046F0BD00100240000001400B
:100D60000004004800080048000C0048000401404E
:100D7000002A01D0816100E08162704743695940D7
:100D80004161704770B5002817DAC0B20F230340E5
:100D9000083B9B0806339B00114A944663445A68FB
:100DA00003242040C000FC3425008540AA4389016B
:100DB000214081401143596010E08308094DC03340
:100DC0009B005C5903221040C000FF263200824085
:100DD00094438901314081402143595170BDC0463F
:100DE00000ED00E000E100E001380A4B98420FD826
:100DF000094A506009490B6A1B021B0AC020000601
:100E000003430B620023936007331360002000E06C
:100E100001207047FFFFFF0010E000E000ED00E060
:100E200010B5FFF7DBFAFFF7FDFA802189010348CF
:100E3000FFF7A4FF6420FFF7C5FEF6E700080048AF
:100E4000114B1A6801210A431A6058680F4A024080
:100E50005A6018680E4A02401A6018680D4A02402B
:100E60001A6058680C4A02405A60DA6A0F208243BE
:100E7000DA62186B094A02401A635A6B8A435A6352
:100E800000229A607047C046001002400CB8FF086C
:100E9000FFFFF6FEFFFFFBFFFFFFC0FFECFEFFFFC3
:100EA0000D4885460D480E490E4A002302E0D458ED
:100EB000C4500433C4188C42F9D30B4A0B4C0023A2
:100EC00001E013600432A242FBD3FFF7B9FFFFF742
:100ED00051F9FFF7A5FFFEE70010002000000020F9
:100EE00004000020440F000804000020240000201B
:100EF000FEE70000F8B5C046F8BC08BC9E46704747
:0C0F0000F8B5C046F8BC08BC9E4670471F
:100F0C0002030405060708090A0B0C0D0E0F10103E
:100F1C000102030405060708090A0B0C0D0E0F103D
:100F2C00000000000000000001020304060708098D
:040F3C00390100086F
:040F40000D01000897
:040F440000127A001D
:0400000508000EA140
:00000001FF
